{
  "address": "0xe7f1725E7734CE288F8367e1Bb143E90bb3F0512",
  "abi": [
    {
      "inputs": [
        {
          "internalType": "address",
          "name": "pricefeedAddress",
          "type": "address"
        }
      ],
      "stateMutability": "nonpayable",
      "type": "constructor"
    },
    {
      "anonymous": false,
      "inputs": [
        {
          "indexed": false,
          "internalType": "address",
          "name": "sender",
          "type": "address"
        },
        {
          "indexed": false,
          "internalType": "uint256",
          "name": "amount",
          "type": "uint256"
        }
      ],
      "name": "Doneted",
      "type": "event"
    },
    {
      "anonymous": false,
      "inputs": [
        {
          "indexed": false,
          "internalType": "uint256",
          "name": "timestamp",
          "type": "uint256"
        }
      ],
      "name": "Withdrawed",
      "type": "event"
    },
    {
      "inputs": [],
      "name": "donate",
      "outputs": [],
      "stateMutability": "payable",
      "type": "function"
    },
    {
      "inputs": [],
      "name": "donetionCount",
      "outputs": [
        {
          "internalType": "uint256",
          "name": "",
          "type": "uint256"
        }
      ],
      "stateMutability": "view",
      "type": "function"
    },
    {
      "inputs": [
        {
          "internalType": "address",
          "name": "from",
          "type": "address"
        }
      ],
      "name": "getDonetions",
      "outputs": [
        {
          "internalType": "uint256",
          "name": "",
          "type": "uint256"
        }
      ],
      "stateMutability": "view",
      "type": "function"
    },
    {
      "inputs": [],
      "name": "getEthtoUSD",
      "outputs": [
        {
          "internalType": "int256",
          "name": "",
          "type": "int256"
        }
      ],
      "stateMutability": "view",
      "type": "function"
    },
    {
      "inputs": [],
      "name": "viewOwner",
      "outputs": [
        {
          "internalType": "address",
          "name": "o",
          "type": "address"
        }
      ],
      "stateMutability": "view",
      "type": "function"
    },
    {
      "inputs": [],
      "name": "withdraw",
      "outputs": [],
      "stateMutability": "payable",
      "type": "function"
    }
  ],
  "transactionHash": "0x384f4df25246e83bb26f6b1895f8cf70f8414c7a997d3a4a68eb779fc87d2ed8",
  "args": [
    "0x5FbDB2315678afecb367f032d93F642f64180aa3"
  ],
  "numDeployments": 1,
  "solcInputHash": "a5ce1ae8789dcf9d75dece21fc556e3c",
  "bytecode": "0x608060405234801561001057600080fd5b506040516109e73803806109e783398181016040528101906100329190610124565b336000806101000a81548173ffffffffffffffffffffffffffffffffffffffff021916908373ffffffffffffffffffffffffffffffffffffffff160217905550600060028190555080600360006101000a81548173ffffffffffffffffffffffffffffffffffffffff021916908373ffffffffffffffffffffffffffffffffffffffff16021790555050610151565b600080fd5b600073ffffffffffffffffffffffffffffffffffffffff82169050919050565b60006100f1826100c6565b9050919050565b610101816100e6565b811461010c57600080fd5b50565b60008151905061011e816100f8565b92915050565b60006020828403121561013a576101396100c1565b5b60006101488482850161010f565b91505092915050565b610887806101606000396000f3fe6080604052600436106100555760003560e01c80631188573a1461005a5780633ccfd60b14610097578063bc677b46146100a1578063c14734bd146100cc578063cea502d5146100f7578063ed88c68e14610122575b600080fd5b34801561006657600080fd5b50610081600480360381019061007c9190610470565b61012c565b60405161008e91906104b6565b60405180910390f35b61009f610175565b005b3480156100ad57600080fd5b506100b661026c565b6040516100c391906104e0565b60405180910390f35b3480156100d857600080fd5b506100e1610295565b6040516100ee91906104b6565b60405180910390f35b34801561010357600080fd5b5061010c61029f565b6040516101199190610514565b60405180910390f35b61012a610364565b005b6000600160008373ffffffffffffffffffffffffffffffffffffffff1673ffffffffffffffffffffffffffffffffffffffff168152602001908152602001600020549050919050565b60008054906101000a900473ffffffffffffffffffffffffffffffffffffffff1673ffffffffffffffffffffffffffffffffffffffff163373ffffffffffffffffffffffffffffffffffffffff1614610203576040517f08c379a00000000000000000000000000000000000000000000000000000000081526004016101fa9061058c565b60405180910390fd5b60008054906101000a900473ffffffffffffffffffffffffffffffffffffffff1673ffffffffffffffffffffffffffffffffffffffff166108fc479081150290604051600060405180830381858888f19350505050158015610269573d6000803e3d6000fd5b50565b60008060009054906101000a900473ffffffffffffffffffffffffffffffffffffffff16905090565b6000600254905090565b600080600360009054906101000a900473ffffffffffffffffffffffffffffffffffffffff1673ffffffffffffffffffffffffffffffffffffffff1663feaf968c6040518163ffffffff1660e01b815260040160a06040518083038186803b15801561030a57600080fd5b505afa15801561031e573d6000803e3d6000fd5b505050506040513d601f19601f820116820180604052508101906103429190610646565b50505091505060006305f5e1008261035a919061071f565b9050809250505090565b34600160003373ffffffffffffffffffffffffffffffffffffffff1673ffffffffffffffffffffffffffffffffffffffff16815260200190815260200160002060008282546103b39190610789565b925050819055507fe9acf734d715fc832d14346ba288df6c31bf969ccd1c74cac48d58917ba2016333346040516103eb9291906107df565b60405180910390a16002600081548092919061040690610808565b9190505550565b600080fd5b600073ffffffffffffffffffffffffffffffffffffffff82169050919050565b600061043d82610412565b9050919050565b61044d81610432565b811461045857600080fd5b50565b60008135905061046a81610444565b92915050565b6000602082840312156104865761048561040d565b5b60006104948482850161045b565b91505092915050565b6000819050919050565b6104b08161049d565b82525050565b60006020820190506104cb60008301846104a7565b92915050565b6104da81610432565b82525050565b60006020820190506104f560008301846104d1565b92915050565b6000819050919050565b61050e816104fb565b82525050565b60006020820190506105296000830184610505565b92915050565b600082825260208201905092915050565b7f596f7520617265206e6f7420746865206f776e65720000000000000000000000600082015250565b600061057660158361052f565b915061058182610540565b602082019050919050565b600060208201905081810360008301526105a581610569565b9050919050565b600069ffffffffffffffffffff82169050919050565b6105cb816105ac565b81146105d657600080fd5b50565b6000815190506105e8816105c2565b92915050565b6105f7816104fb565b811461060257600080fd5b50565b600081519050610614816105ee565b92915050565b6106238161049d565b811461062e57600080fd5b50565b6000815190506106408161061a565b92915050565b600080600080600060a086880312156106625761066161040d565b5b6000610670888289016105d9565b955050602061068188828901610605565b945050604061069288828901610631565b93505060606106a388828901610631565b92505060806106b4888289016105d9565b9150509295509295909350565b7f4e487b7100000000000000000000000000000000000000000000000000000000600052601260045260246000fd5b7f4e487b7100000000000000000000000000000000000000000000000000000000600052601160045260246000fd5b600061072a826104fb565b9150610735836104fb565b925082610745576107446106c1565b5b600160000383147f80000000000000000000000000000000000000000000000000000000000000008314161561077e5761077d6106f0565b5b828205905092915050565b60006107948261049d565b915061079f8361049d565b9250827fffffffffffffffffffffffffffffffffffffffffffffffffffffffffffffffff038211156107d4576107d36106f0565b5b828201905092915050565b60006040820190506107f460008301856104d1565b61080160208301846104a7565b9392505050565b60006108138261049d565b91507fffffffffffffffffffffffffffffffffffffffffffffffffffffffffffffffff821415610846576108456106f0565b5b60018201905091905056fea2646970667358221220d76921f72d99d496418d7503f188c607d8b875e7df0091d83482a24fc826421c64736f6c63430008090033",
  "devdoc": {
    "kind": "dev",
    "methods": {},
    "version": 1
  },
  "userdoc": {
    "kind": "user",
    "methods": {},
    "version": 1
  },
  "storageLayout": {
    "storage": [
      {
        "astId": 51,
        "contract": "contracts/FundMe.sol:FundMe",
        "label": "owner",
        "offset": 0,
        "slot": "0",
        "type": "t_address_payable"
      },
      {
        "astId": 55,
        "contract": "contracts/FundMe.sol:FundMe",
        "label": "donations",
        "offset": 0,
        "slot": "1",
        "type": "t_mapping(t_address,t_uint256)"
      },
      {
        "astId": 57,
        "contract": "contracts/FundMe.sol:FundMe",
        "label": "donetion_count",
        "offset": 0,
        "slot": "2",
        "type": "t_uint256"
      },
      {
        "astId": 70,
        "contract": "contracts/FundMe.sol:FundMe",
        "label": "pricefeed",
        "offset": 0,
        "slot": "3",
        "type": "t_contract(AggregatorV3Interface)45"
      }
    ],
    "types": {
      "t_address": {
        "encoding": "inplace",
        "label": "address",
        "numberOfBytes": "20"
      },
      "t_address_payable": {
        "encoding": "inplace",
        "label": "address payable",
        "numberOfBytes": "20"
      },
      "t_contract(AggregatorV3Interface)45": {
        "encoding": "inplace",
        "label": "contract AggregatorV3Interface",
        "numberOfBytes": "20"
      },
      "t_mapping(t_address,t_uint256)": {
        "encoding": "mapping",
        "key": "t_address",
        "label": "mapping(address => uint256)",
        "numberOfBytes": "32",
        "value": "t_uint256"
      },
      "t_uint256": {
        "encoding": "inplace",
        "label": "uint256",
        "numberOfBytes": "32"
      }
    }
  }
}